:100000000C946D010C9495010C9495010C94950140
:100010000C9495010C9495010C9495010C94950108
:100020000C9495010C9495010C94540B0C94220A99
:100030000C9495010C9495010C9495010C949501E8
:100040000C9495010C9495010C9495010C949501D8
:100050000C9495010C9495010C9495010C94F20567
:100060000C9495010C9495010C9495010C949501B8
:100070000C9495010C9495010C9495010C949501A8
:100080000C9495010C9495010C9495010C94950198
:100090000C9495010C9495010C9495010C94950188
:1000A0000C9495010C9495010C9495010706050498
:1000B0000100080A0B0C0D090000000200080E00E8
:1000C00000030401000B000000000000000000001D
:1000D00000000000000004080201104080401020D1
:1000E00040804080080204018040201002011080FE
:1000F0001020404004040404040304050202020228
:1001000004030202020206060606060604040202B0
:10011000020400000000250028002B002E00310002
:1001200000000000240027002A002D003000080BEA
:1001300000020202010009040000010202000005A1
:1001400024001001052401010104240206052406EF
:1001500000010705810310004009040100020A00A4
:10016000000007050202400000070583024000006E
:1001700000C18081C112010002020000404123360B
:100180008000010102000112010002000000404154
:10019000233680000101020001180341007200644F
:1001A00000750069006E006F0020004C004C004399
:1001B000002203410072006400750069006E006F48
:1001C0000020004C0065006F006E0061007200644A
:1001D000006F000403090400000000000000002A72
:1001E0002B280000000000000000000000000000BC
:1001F000000000000000002C9EB4A0A1A2A434A620
:10020000A7A5AE362D3738271E1F202122232425EF
:1002100026B333B62EB7B89F8485868788898A8BA4
:100220008C8D8E8F909192939495969798999A9B96
:100230009C9D2F3130A3AD350405060708090A0B34
:100240000C0D0E0F101112131415161718191A1B76
:100250001C1DAFB1B0B5000904020001030000008D
:100260000921010100012265000705840340000106
:1002700005010902A1010901A10085010509190172
:100280002903150025019503750181029501750566
:10029000810305010930093109381581257F750869
:1002A00095038106C0C005010906A1018502050765
:1002B00019E029E7150025017501950881029501CE
:1002C0007508810395067508150025650507190051
:1002D00029658100C0002708080D11241FBECFEF3B
:1002E000DAE0DEBFCDBF15E0A0E0B1E0EAE8FAE178
:1002F00002C005900D92A230B107D9F715E0A2E037
:10030000B5E001C01D92A337B107E1F712E0CAEDD5
:10031000D2E004C02297FE010E943F0DC63DD107E6
:10032000C9F70E9417070C94430D0C940000611547
:10033000710581F0DB010D900020E9F7AD0141501E
:100340005109461B570BDC01ED91FC910280F381B2
:10035000E02D099480E090E008950F931F93CF93D0
:10036000DF9361E08DE00E94830561E08CE00E94F4
:100370008305CAEFD2E08E01F80180810E5F1F4F26
:1003800061E00E948305F3E002301F07A9F760E0F7
:100390008DE00E94BB0561E08CE00E94BB05888176
:1003A000229660E00E94BB0583E0C230D807B9F70F
:1003B00060E082E10E94830560E875E28BE095E0F1
:1003C000DF91CF911F910F910C94260887309105F2
:1003D00030F5603234F125E06202B0011124605042
:1003E0007F4FA0E040E050E0FB01E40FF51FE05A32
:1003F000F109208130E0082E02C0359527950A9436
:10040000E2F721703327042E01C0220F0A94EAF785
:10041000A22B4F5F5F4F4530510531F703C0A5E573
:1004200001C0AAEA8A2F08952F923F924F925F92BD
:100430006F927F928F929F92AF92BF92CF92DF92F4
:10044000EF92FF920F931F93CF93DF93CDB7DEB759
:100450002A970FB6F894DEBF0FBECDBF4C016B01DB
:1004600000E010E080969E838D83F401E05CFF4FF6
:10047000F887EF83C401805A9F4F9A8789871E01AE
:1004800095E0290E311C76C0F601E80FF91F1082A5
:10049000118212821382049680359105A9F72401F6
:1004A000E12CF12CA12CB12C612C712CF201619169
:1004B0002F01C8010E94E6018983ED81FE81EE0DC6
:1004C000FF1D6081C8010E94E6018A83EF81F885E3
:1004D000EE0DFF1D6081C8010E94E6018B83E98556
:1004E000FA85EE0DFF1D6081C8010E94E6018C8334
:1004F00080E090E025C02D9130E0082E02C03595B7
:1005000027950A94E2F7217033270A2C01C0220FA5
:100510000A94EAF73081322B3193A215B30559F7CB
:10052000FFEFAF1ABF0A28E0A216B10429F4EFEFDB
:100530006E1A7E0AA12CB12C01968530910551F0DE
:10054000DE011196F301EE0FFF1FEE0FFF1FEC0D02
:10055000FD1DD1CFFFEFEF1AFF0A20E2E216F104F2
:1005600009F0A4CF0F5F1F4F80E5C80ED11C0730E4
:10057000110519F080E090E087CF2A960FB6F89425
:10058000DEBF0FBECDBFDF91CF911F910F91FF90C6
:10059000EF90DF90CF90BF90AF909F908F907F9023
:1005A0006F905F904F903F902F90089547980895D7
:1005B000880F991F25B1FC01E052FD4F662379F0A9
:1005C00041E050E060E070E0008004C0440F551F3F
:1005D000661F771F0A94D2F7242B25B9089541E0AE
:1005E00050E060E070E0008004C0440F551F661FBB
:1005F000771F0A94D2F74095422345B908955E9A31
:1006000008955E98089585B190EF892785B908957A
:100610000F931F93CF93DF938C01C0E0D0E00E9433
:10062000D602F801608170E00C2E02C075956795C6
:100630000A94E2F761708BE090E00E94D802F80122
:10064000618170E00C2E02C0759567950A94E2F7FF
:1006500061708AE090E00E94D802F801628170E047
:100660000C2E02C0759567950A94E2F7617089E0D7
:1006700090E00E94D802F801638170E00C2E02C065
:10068000759567950A94E2F7617088E090E00E94A2
:10069000D802479A2196C830D10509F6DF91CF914B
:1006A0001F910F910C940303CF92DF92EF92FF9270
:1006B0000F931F93CF93DF93C2E0D0E001966C01BC
:1006C00076010C2E02C0F594E7940A94E2F7E1E07B
:1006D000EE22FF240E94D6020AEF12E0F801808188
:1006E0000E5F1F4F6E2D0E94BB05F3E002301F0707
:1006F000A9F7479A0E94D602219710F7DF91CF9170
:100700001F910F91FF90EF90DF90CF900895CF92BF
:10071000DF92EF92FF920F931F93CF93DF936C01C1
:100720007B0120E52C9DC0012D9D900D1124E80E2C
:10073000F91EC0E0D0E017C0C8018C0F9D1F880FC4
:10074000991F880F991F8E0D9F1D0E9408030F5F30
:100750001F4F0A30110581F7C6010E9454032A96E3
:10076000C431D10519F000E010E0E6CFDF91CF9160
:100770001F910F91FF90EF90DF90CF900895CF924F
:10078000DF92EF92FF920F931F93CF93DF936C0151
:10079000CB0167E070E00E94150D7B0100E010E0E6
:1007A00024C0C0E0D0E00E94FF02B601CE010E944A
:1007B00087030E94010361E070E080E090E00E9406
:1007C00066068BE095E00E942807892B21F421968C
:1007D000C730D10541F70E94FF028BE095E00E94EF
:1007E0002807892B29F40F5F1F4F0E151F05CCF228
:1007F000DF91CF911F910F91FF90EF90DF90CF90FD
:10080000089506C08BE095E00E944E078A3031F0D3
:100810008BE095E00E942807892BA1F708958BE0D3
:1008200095E00E942807892B29F408958BE095E034
:100830000E944E078BE095E00E942807892BB1F7B4
:1008400008950F931F93CF93DF938C01FC0120E059
:1008500030E080E281932F5F3F4F20323105D1F7A6
:10086000C0E0D0E08BE095E00E944E0797FF07C004
:100870006AE070E080E090E00E946606F3CF8D3081
:10088000910559F08A30910541F0F801EC0FFD1FF8
:1008900080832196C032D1052CF380E0DF91CF9187
:1008A0001F910F910895EF92FF920F931F93CF9393
:1008B000DF938C017B018BE095E00E942807892B58
:1008C00009F476C08BE095E00E944E0780379105D1
:1008D00009F45FC064F48636910509F45AC08D3678
:1008E000910509F456C0CF9709F05AC008C0823765
:1008F000910561F08337910509F052C01DC063E294
:1009000074E08BE095E00E9497015DC0C0E0D0E00C
:10091000B8016C0F7D1F40E250E08BE095E00E9433
:100920003E0866EA73E08BE095E00E949701A0968E
:10093000C038D10569F747C06DE873E08BE095E0FA
:100940000E9497018BE095E00E944E078F3F2FEFAA
:100950009207C1F3EC01E197C430D10528F00E9461
:10096000010469EA73E017C06FEB73E08BE095E078
:100970000E949701CE0155E0880F991F5A95E1F723
:10098000800F911F0E942104B701C8010E94140228
:100990001AC06DEE73E08BE095E00E9497010BC0EA
:1009A00065E074E0F8CF0E940F042C2F30E013C0F4
:1009B00020E030E010C066E174E08BE095E00E943A
:1009C0009701C1E0F0CF6EE174E08BE095E00E940A
:1009D0009701C0E0E8CFC901DF91CF911F910F913E
:1009E000FF90EF900895CF93DF93CDB7DEB7C05B54
:1009F000D2400FB6F894DEBF0FBECDBF8E010F5CA4
:100A00001D4F80E8EDE0F3E0D80101900D928A954A
:100A1000E1F780E2F801878F87AFC057DD4F888309
:100A2000C059D240C055DD4F8883C05BD240EE2410
:100A3000E394F12CEC0EFD1EB701C8010E941402D4
:100A400082E10E94E20640971CF060ED77E002C070
:100A50006AE070E0C7010E94BF03B701C8010E94AD
:100A6000530468E572E080E090E00E946606E8CFFB
:100A7000883059F160F4823021F120F4813009F09E
:100A800041C01CC0833081F08430E1F511C08B304F
:100A900051F128F48930E9F08A30A1F51EC08C307C
:100AA00031F18E3079F529C0809180008F7703C0B5
:100AB000809180008F7D80938000089584B58F772A
:100AC00002C084B58F7D84BD0895809190008F779A
:100AD00007C0809190008F7D03C080919000877F38
:100AE0008093900008958091C0008F7703C080911B
:100AF000C0008F7D8093C00008958091C200877FE1
:100B00008093C2000895CF93DF9390E0FC01EA52F6
:100B1000FF4F4491FC01EC50FF4F8491882341F139
:100B200090E0880F991FFC01E05EFE4F2591349103
:100B3000D9018E5E9E4FFC0185919491C82FD92FCB
:100B40009FB7F8948C91611106C0409584238C93D3
:100B50008881842308C0623041F4242F20958223A9
:100B60008C938881842B888302C0842B8C939FBFB5
:100B7000DF91CF9108950F931F93CF93DF931F922F
:100B8000CDB7DEB7282F30E0F901E854FF4F84914C
:100B9000F901EA52FF4F1491F901EC50FF4F049113
:100BA0000023D1F0882321F069830E9438056981F0
:100BB000E02FF0E0EE0FFF1FEE5EFE4F8591949167
:100BC000DC019FB7F8948C91611103C010958123CB
:100BD00001C0812B8C939FBF0F90DF91CF911F910C
:100BE0000F9108951F920F920FB60F9211242F9319
:100BF0003F938F939F93AF93BF9380910205909102
:100C00000305A0910405B091050530910A05232F35
:100C10002D5F2D3720F40196A11DB11D05C0232F96
:100C20002A570296A11DB11D20930A058093020543
:100C300090930305A0930405B093050580910605E4
:100C400090910705A0910805B09109050196A11D95
:100C5000B11D8093060590930705A0930805B093F6
:100C60000905BF91AF919F918F913F912F910F9067
:100C70000FBE0F901F9018950F931F939FB7F89476
:100C8000009106051091070520910805309109058E
:100C900086B5A89B06C08F3F21F00F5F1F4F2F4FD7
:100CA0003F4F9FBF322F212F102F0027080F111DFC
:100CB000211D311D42E0000F111F221F331F4A95D5
:100CC000D1F7B801C9011F910F910895CF92DF921A
:100CD000EF92FF92CF93DF936B017C010E943C0661
:100CE000EB010EC00E943C066C1B7D0B683E7340FE
:100CF00038F081E0C81AD108E108F108C851DC4F8A
:100D0000C114D104E104F10469F7DF91CF91FF90A0
:100D1000EF90DF90CF900895789484B5826084BD81
:100D200084B5816084BD85B5826085BD85B58160EF
:100D300085BDEEE6F0E0808181608083E1E8F0E04F
:100D40001082808182608083808181608083E0E87E
:100D5000F0E0808181608083E1E9F0E08081826061
:100D60008083808181608083E0E9F0E08081816020
:100D70008083E1ECF0E08081846080838081826008
:100D80008083808181608083E3ECF0E080818160FA
:100D90008083E0ECF0E0808182608083E2ECF0E030
:100DA000808181608083EAE7F0E0808184608083D5
:100DB000808182608083808181608083808180687F
:100DC00080830895823108F08251E82FF0E0E455E5
:100DD000FF4FE49180917B00E3FB222720F930E074
:100DE00095E0220F331F9A95E1F78F7D822B809338
:100DF0007B00E7708091020320E4829FC0011124F0
:100E0000E82BE0937C0080917A00806480937A00E4
:100E100080917A0086FDFCCF209178003091790096
:100E2000932F80E0AC01422B9A01C90108950E94E2
:100E30008C068DE595E00E94B30B0E94AD01C0E0E9
:100E4000D0E00E94F3042097E1F30E940000F9CF64
:100E50002091590530915A0580915B0590915C0570
:100E6000281B390B2F733327C90108952091590589
:100E700030915A0580915B0590915C0528173907E0
:100E800049F0E0915B05F0915C05E75EFA4F208147
:100E900030E002C02FEF3FEFC901089520915905BE
:100EA00030915A0580915B0590915C0528173907B0
:100EB000B1F0E0915B05F0915C05E75EFA4F80814F
:100EC00020915B0530915C052F5F3F4F2F733327D7
:100ED00030935C0520935B05282F30E002C02FEF94
:100EE0003FEFC90108950F931F93CF93DF931F9294
:100EF000CDB7DEB78C01698380910A03882369F03E
:100F000041E050E0BE016F5F7F4F83E00E94060921
:100F10001816190614F49C0107C081E090E0F8014E
:100F20009383828320E030E0C9010F90DF91CF915D
:100F30001F910F91089583E00C944A0BCF93DF9398
:100F400012C082E00E94D4088F3F2FEF9207C9F0B1
:100F5000E0915905F0915A05E75EFA4F8083D093EE
:100F60005A05C0935905C0915905D0915A0521964B
:100F7000CF73DD2780915B0590915C05C817D90779
:100F800001F7DF91CF910895FC0120812E5F20832E
:100F900042E450E06EE271E080E80C94A109FC01AB
:100FA00081819081913A59F4813209F04BC047E038
:100FB00050E063E073E080E00E94A10945C09132F7
:100FC00009F040C0803239F467E070E083E093E0DC
:100FD0000E94F40939C0823209F034C082818093C2
:100FE0000A038091030390910403A0910503B0913B
:100FF0000603803B9440A105B10531F580910A03B9
:1010000080FD12C087E797E790930108809300085E
:101010002BE088E190E00FB6F894A89580936000EB
:101020000FBE2093600010C088E10FB6F894809343
:101030006000109260000FBEA895109201081092F7
:10104000000802C080E0089581E00895089510929C
:101050000E0510920D0588EE93E0A0E0B0E08093BD
:101060000F0590931005A0931105B093120586EE1D
:1010700094E090930C0580930B050895CF92DF9236
:10108000EF92FF920F931F93CF93DF936C01EB01CD
:101090007A01E60EF71E00E010E00BC06991D60160
:1010A000ED91FC910190F081E02DC6010995080FAA
:1010B000191FCE15DF0591F7C801DF91CF911F9160
:1010C0000F91FF90EF90DF90CF90089505C0209191
:1010D000F100FC012193CF016150C8F7289884E604
:1010E0008093640508952FB7FC012083F8946770FE
:1010F0006093E9000895CF93DF931F92CDB7DEB7D9
:10110000682FCE0101960E9473088091F2009981A8
:101110009FBF0F90DF91CF910895FF920F931F9380
:10112000CF93DF9300D0CDB7DEB7F62E8A01909132
:1011300063059923A9F057FF16C012C02898809321
:1011400064059091F1009193FE12F8CF411551057D
:1011500021F08091F2008823D1F089818FBF1BC0DC
:101160004FEF5FEF18C0682FCE0101967A830E947F
:1011700073088091F20090E0A8017A8180179107AE
:101180000CF4AC01EF2DF72FF40E84E6DDCF8BE6E7
:101190008093E800E2CFCA010F900F90DF91CF91CA
:1011A0001F910F91FF900895CF93DF931F92CDB7BA
:1011B000DEB741E050E0BE016F5F7F4F0E948D08B7
:1011C000019719F4298130E002C02FEF3FEFC901E8
:1011D0000F90DF91CF910895CF93DF931F92CDB7FA
:1011E000DEB7682FCE0101960E9473088091E80057
:1011F00085FF05C09091F20080E4891B01C080E06A
:1012000099819FBF0F90DF91CF9108956F927F9248
:101210008F929F92AF92BF92CF92DF92EF92FF9206
:101220000F931F93CF93DF931F92CDB7DEB7782E26
:10123000C42EB52E8091630581114CC02FEF3FEF76
:1012400064C0872D0E94EC08682E811109C0DA94D1
:10125000A9F361E070E080E090E00E94660647C07C
:10126000282F30E0021713070CF4602E061911091D
:10127000672DCE0101960E947308992041F002C0AB
:101280001092F1006A948FEF6812FACF17C0862D82
:1012900077FC02C0F7010EC0970106C0F9012F5F6D
:1012A0003F4FE491E093F1008150C0F705C0919168
:1012B0009093F1008150D8F7E60CF11C8091E80082
:1012C00085FF20C00115110511F481101BC0898113
:1012D0008FBF0DC07B01042F152F8AEFD82E90E20F
:1012E000992E97202AE3A22E30E4832E8720011521
:1012F000110509F0A6CF5D9884E6809365052C2D35
:101300003B2D03C0A092E800E2CFC9010F90DF910E
:10131000CF911F910F91FF90EF90DF90CF90BF90F2
:10132000AF909F908F907F906F9008951092E900FA
:1013300010926205109261059093600580935F059D
:101340000895FF920F931F93CF93DF93C42FD52F50
:10135000DB0160E070E0EEEFFE2E38C09D012F5FF4
:101360003F4F87FF04C0FD01D901E49102C0EC9119
:10137000D901009161051091620520915F053091BE
:10138000600502171307B4F49091E8009570E1F33B
:101390009091E80092FD1FC0E093F100209161055B
:1013A000309162052F5F3F4F2F733327232B11F4AA
:1013B000F092E80020916105309162052F5F3F4F68
:1013C00030936205209361056F5F7F4F6C177D0737
:1013D00029F69A0102C02FEF3FEFC901DF91CF91AB
:1013E0001F910F91FF9008951F93CF93DF931F924A
:1013F000CDB7DEB7162F2091E80022FFFCCF612F7A
:1014000079830E9466088BEF8093E800812F7981B1
:10141000972F0F90DF91CF911F910895CF93DF9376
:101420001F92CDB7DEB71982CE0101960E94C40784
:10143000CE0101960E94F00B898190E00F90DF9120
:10144000CF9108951F920F920FB60F921124EF9231
:10145000FF920F931F932F933F934F935F936F933D
:101460007F938F939F93AF93BF93EF93FF93CF930C
:10147000DF93CDB7DEB76297DEBFCDBF1092E90034
:101480008091E80083FFE9C068E0CE010A960E94DF
:10149000660882EF8093E8009A8597FF05C08091E7
:1014A000E80080FFFCCF03C08EEF8093E800892F17
:1014B000807609F0B7C08B85811105C01092F100CC
:1014C0001092F100C3C0813009F4C0C0833009F428
:1014D000BDC0853049F48091E80080FFFCCF8C8549
:1014E00080688093E300B2C0863009F073C02D8518
:1014F000E888F988223071F580E090E02A8B0E941C
:1015000096090E940E0A99E08E010F5F1F4FF801A5
:10151000392F11923A95E9F799832A892A8391E024
:101520009E8390E898879AEF998720916105309182
:101530006205275F3F4F3C832B838D83C7010E9449
:10154000960949E050E0B80180E00E94A1090E949C
:101550000E0A7CC0C7012A8B0E9496092A89223272
:1015600041F482E290E00E94FB0B892B09F06EC0EF
:1015700071C0213071F488899989089719F481E044
:1015800080935E0580915E05882389F065E771E0B0
:1015900016C0233009F05EC08C85882359F0823054
:1015A00061F0813009F056C069E971E008C067E870
:1015B00071E005C063ED71E002C061EB71E061159F
:1015C000710509F447C0FB01449150E080E80E9496
:1015D000A1093CC0873009F43DC0883021F481E086
:1015E0008093F10033C0893089F5937099F5E1E774
:1015F000F1E081E021E096E38093E9002093EB00A5
:1016000034913093EC009093ED008F5F31968530EC
:1016100099F78EE78093EA001092EA008C85809318
:10162000630514C0888999890E9496098E85811165
:1016300005C0CE010A960E94CF0706C0823051F441
:10164000CE010A960E94230C882321F08EEF80930E
:10165000E80003C081E28093EB0062960FB6F89435
:10166000DEBF0FBECDBFDF91CF91FF91EF91BF9154
:10167000AF919F918F917F916F915F914F913F912A
:101680002F911F910F91FF90EF900F900FBE0F9031
:101690001F9018958093E9008091F200882319F03B
:1016A0008AE38093E80008951F920F920FB60F927D
:1016B00011242F933F934F935F936F937F938F9357
:1016C0009F93AF93BF93EF93FF938091E1001092AC
:1016D000E10083FF0FC01092E90091E09093EB00CE
:1016E0001092EC0092E39093ED001092630598E065
:1016F0009093F00082FF26C083E00E944A0B82E0B4
:101700000E947B08882321F08BE095E00E949E07D1
:1017100080916505882339F080916505815080931B
:101720006505882361F080916405882359F08091D4
:101730006405815080936405882319F003C05D9A85
:10174000F2CF289AFF91EF91BF91AF919F918F9126
:101750007F916F915F914F913F912F910F900FBEAD
:101760000F901F9018951092630581E08093D70029
:1017700080EA8093D80082E189BD09B400FEFDCFE4
:1017800061E070E080E090E00E94660680E980936E
:10179000D8008CE08093E2001092E000559A209AE5
:1017A0000895FF920F931F93CF93DF93EC01F62ED2
:1017B000E881F9810480F581E02D09958C01E881AB
:1017C000F9810680F781E02D6F2DCE0109959801F2
:1017D0003327C901DF91CF911F910F91FF90089599
:1017E000FC0120812F5F208349E150E067E572E032
:1017F00080E80C94A10945E650E060E772E080E8DB
:101800000C94A109EF92FF920F931F93CF93DF9354
:101810001F92CDB7DEB789838B017A0141E050E09A
:10182000BE016F5F7F4F84E00E940609A701B801E7
:1018300084E40E9406090F90DF91CF911F910F91D0
:10184000FF90EF900895FC0191818081813A31F4FD
:1018500081E0913091F0933091F010C0813271F4B9
:101860009B3021F4828180930C0305C09A3031F4BF
:10187000828180930B0381E00895089580E00895AC
:1018800048E050E082E00C94020CFC0116821782C2
:1018900010861186128613861482BC016C5F7F4FFE
:1018A0000C94400CE62F683810F0E85824C0F0E0A3
:1018B00067FF12C0E058F10921E030E001C0220FBB
:1018C000EA95EAF72095DC0114963C9114973223AF
:1018D00014963C93E0E00FC0E952FE4FE491EE23F2
:1018E00029F1E7FF08C0DC0114962C9114972D7F95
:1018F00014962C93EF7720E030E0EE2351F0DC01DA
:10190000A20FB31F16964C9116974E1302C016964F
:101910001C922F5F3F4F2630310579F7BC016C5F79
:101920007F4F0E94400C21E030E002C020E030E018
:10193000C9010895CF93DF93DC01E62F683810F0DA
:10194000E85824C0F0E067FF11C0E058F10981E0D9
:1019500090E001C0880FEA95EAF714969C911497DD
:10196000982B14969C931497E0E010C0E952FE4F18
:10197000E491E11101C040C0E7FF08C014968C91CA
:101980001497826014968C931497EF7716968C9127
:1019900016978E1741F117968C9117978E1719F19C
:1019A00018968C9118978E17F1F019968C911997BB
:1019B0008E17C9F01A968C911A978E17A1F01B9664
:1019C0008C911B978E1779F080E090E0ED01C80FA5
:1019D000D91F2E81211102C0EE8305C001968630E9
:1019E0009105A1F709C0BD016C5F7F4FCD010E9439
:1019F000400C21E030E008C081E090E013969C9319
:101A00008E93129720E030E0C901DF91CF910895C5
:101A100010927205109269051092680588EF94E0A3
:101A20009093670580936605089597FB072E16F43B
:101A3000009407D077FD09D00E94290D07FC05D03E
:101A40003EF4909581959F4F0895709561957F4FD5
:101A50000895AA1BBB1B51E107C0AA1FBB1FA617F5
:101A6000B70710F0A61BB70B881F991F5A95A9F747
:101A700080959095BC01CD010895EE0FFF1F059054
:0A1A8000F491E02D0994F894FFCFD3
:101A8A00000000000000005F0000000700070014CB
:101A9A007F147F14242A7F2A12231308646236498A
:101AAA005522500005030000001C2241000041227B
:101ABA001C00082A1C2A0808083E080800503000A2
:101ACA0000080808080800606000002010080402E6
:101ADA003E5149453E00427F4000426151494621FC
:101AEA0041454B311814127F1027454545393C4A68
:101AFA0049493001710905033649494936064949B8
:101B0A00291E00363600000056360000000814224E
:101B1A004114141414144122140800020151090634
:101B2A00324979413E7E1111117E7F494949363E3B
:101B3A00414141227F4141221C7F494949417F0954
:101B4A000901013E414151327F0808087F00417F67
:101B5A0041002040413F017F081422417F4040401C
:101B6A00407F0204027F7F0408107F3E4141413ECC
:101B7A007F090909063E4151215E7F091929464616
:101B8A004949493101017F01013F4040403F1F203F
:101B9A0040201F7F2018207F6314081463030478F1
:101BAA000403615149454300007F41410204081082
:101BBA002041417F000004020102044040404040AD
:101BCA00000102040020545454787F4844443838B1
:101BDA0044444420384444487F3854545418087EB6
:101BEA00090102081454543C7F0804047800447D17
:101BFA0040002040443D00007F10284400417F40BF
:101C0A00007C041804787C08040478384444443876
:101C1A007C14141408081414187C7C08040408485A
:101C2A0054545420043F4440203C4040207C1C2013
:101C3A0040201C3C4030403C44281028440C505062
:101C4A00503C4464544C441C3E6B140000007F001A
:101C5A0000004136080008040810081C3E6B1400F6
:101C6A00000000000000000000000000000000006A
:101C7A00040005000600070000000B000A00090026
:101C8A0008000100E100000000000001017B205271
:101C9A004F475545204841434B204C414220202084
:101CAA0020202020202020202020207B0020204DC2
:101CBA00656D626572204E696768742C2020202049
:101CCA0054756520363A3030706D20200020204F40
:101CDA0070656E204861636B204E696768742C20BA
:101CEA0057656420363A3330706D20200020207703
:101CFA0077772E726F6775656861636B6C61622EA8
:101D0A00636F6D202020202020202020007479700D
:101D1A0065206C696E65206E756D6265722028316A
:101D2A00202D2034293A0D0A00696E76616C6964A7
:101D3A00206C696E65206E756D6265720D0A00749D
:101D4A00797065206C696E652064617461202877FA
:101D5A00696C6C207472756E6361746520746F208F
:101D6A003332206368617273293A0D0A00756E690D
:101D7A006D706C656D656E74656420636F6D6D6101
:101D8A006E640D0A00756E6B6F776E20636F6D6DF2
:101D9A00616E640D0A004552524F520D0A004F4BB4
:101DAA000D0A0061726475696E6F6C7578207365CF
:101DBA007269616C20696E7465726661636520760A
:101DCA00302E392C20636F6D6D616E6473206172E1
:101DDA00653A0D0A3F202868656C70292C2072200C
:101DEA0028726561642063757272656E74206D7302
:101DFA0067292C20732028736574206D7367206609
:101E0A006F7220676976656E206C696E65292C2071
:101E1A006D20287365742074656D70206D7367205A
:101E2A00666F722077686F6C65207369676E292CFC
:101E3A002070202873657420706978656C2064614D
:101E4A007461206469726563746C79292C20662038
:101E5A002873657420666F6E742064617461290D3D
:101E6A000A000000000073073E0828074E073607DD
:101E7A009B079E0700000000D10B3E089A0C520CEB
:021E8A00450C05
:00000001FF
